:020000001628C0
:0E0006008312031321088A00200882000800DC
:1000140003208A110A128000840AA00A0319A10A83
:08002400F003031D0A28080087
:10002C00831603138601831286013F30860002304B
:10003C00FB000430FC00BA30FD00FD0B2328FC0B48
:10004C002328FB0B23280000063086000230FB001F
:10005C000430FC00BA30FD00FD0B3228FC0B3228BA
:10006C00FB0B322800005B3086000230FB000430B2
:10007C00FC00BA30FD00FD0B4128FC0B4128FB0BAA
:10008C00412800004F3086000230FB000430FC0099
:10009C00BA30FD00FD0B5028FC0B5028FB0B5028F0
:1000AC000000663086000230FB000430FC00BA30E1
:1000BC00FD00FD0B5F28FC0B5F28FB0B5F2800008D
:1000CC006D3086000230FB000430FC00BA30FD00BD
:1000DC00FD0B6E28FC0B6E28FB0B6E2800007D3090
:1000EC0086000230FB000430FC00BA30FD00FD0B32
:1000FC007D28FC0B7D28FB0B7D280000073086003B
:10010C000230FB000430FC00BA30FD00FD0B8C28E3
:10011C00FC0B8C28FB0B8C2800007F3086000230F7
:10012C00FB000430FC00BA30FD00FD0B9B28FC0BDF
:10013C009B28FB0B9B2800006F3086000230FB00D5
:10014C000430FC00BA30FD00FD0BAA28FC0BAA28D9
:0A015C00FB0BAA2800001B28B228A4
:02400E000A2F77
:00000001FF
